{
  "_format": "hh-sol-artifact-1",
  "contractName": "GuessGame",
  "sourceName": "contracts/GuessGame.sol",
  "abi": [
    {
      "inputs": [
        {
          "internalType": "bytes",
          "name": "_encryptedSecret",
          "type": "bytes"
        }
      ],
      "stateMutability": "nonpayable",
      "type": "constructor"
    },
    {
      "anonymous": false,
      "inputs": [
        {
          "indexed": true,
          "internalType": "address",
          "name": "player",
          "type": "address"
        },
        {
          "indexed": false,
          "internalType": "bytes",
          "name": "guessCipher",
          "type": "bytes"
        }
      ],
      "name": "GuessSubmitted",
      "type": "event"
    },
    {
      "anonymous": false,
      "inputs": [
        {
          "indexed": true,
          "internalType": "address",
          "name": "player",
          "type": "address"
        },
        {
          "indexed": false,
          "internalType": "bytes",
          "name": "resultCipher",
          "type": "bytes"
        }
      ],
      "name": "ResultPublished",
      "type": "event"
    },
    {
      "inputs": [],
      "name": "encryptedSecret",
      "outputs": [
        {
          "internalType": "bytes",
          "name": "",
          "type": "bytes"
        }
      ],
      "stateMutability": "view",
      "type": "function"
    },
    {
      "inputs": [],
      "name": "owner",
      "outputs": [
        {
          "internalType": "address",
          "name": "",
          "type": "address"
        }
      ],
      "stateMutability": "view",
      "type": "function"
    },
    {
      "inputs": [
        {
          "internalType": "address",
          "name": "player",
          "type": "address"
        },
        {
          "internalType": "bytes",
          "name": "resultCipher",
          "type": "bytes"
        }
      ],
      "name": "publishEncryptedResult",
      "outputs": [],
      "stateMutability": "nonpayable",
      "type": "function"
    },
    {
      "inputs": [
        {
          "internalType": "bytes",
          "name": "guessCipher",
          "type": "bytes"
        }
      ],
      "name": "submitEncryptedGuess",
      "outputs": [],
      "stateMutability": "nonpayable",
      "type": "function"
    }
  ],
  "bytecode": "0x60806040523480156200001157600080fd5b5060405162000c2d38038062000c2d833981810160405281019062000037919062000223565b336000806101000a81548173ffffffffffffffffffffffffffffffffffffffff021916908373ffffffffffffffffffffffffffffffffffffffff1602179055508060019081620000889190620004bf565b5050620005a6565b6000604051905090565b600080fd5b600080fd5b600080fd5b600080fd5b6000601f19601f8301169050919050565b7f4e487b7100000000000000000000000000000000000000000000000000000000600052604160045260246000fd5b620000f982620000ae565b810181811067ffffffffffffffff821117156200011b576200011a620000bf565b5b80604052505050565b60006200013062000090565b90506200013e8282620000ee565b919050565b600067ffffffffffffffff821115620001615762000160620000bf565b5b6200016c82620000ae565b9050602081019050919050565b60005b83811015620001995780820151818401526020810190506200017c565b60008484015250505050565b6000620001bc620001b68462000143565b62000124565b905082815260208101848484011115620001db57620001da620000a9565b5b620001e884828562000179565b509392505050565b600082601f830112620002085762000207620000a4565b5b81516200021a848260208601620001a5565b91505092915050565b6000602082840312156200023c576200023b6200009a565b5b600082015167ffffffffffffffff8111156200025d576200025c6200009f565b5b6200026b84828501620001f0565b91505092915050565b600081519050919050565b7f4e487b7100000000000000000000000000000000000000000000000000000000600052602260045260246000fd5b60006002820490506001821680620002c757607f821691505b602082108103620002dd57620002dc6200027f565b5b50919050565b60008190508160005260206000209050919050565b60006020601f8301049050919050565b600082821b905092915050565b600060088302620003477fffffffffffffffffffffffffffffffffffffffffffffffffffffffffffffffff8262000308565b62000353868362000308565b95508019841693508086168417925050509392505050565b6000819050919050565b6000819050919050565b6000620003a06200039a62000394846200036b565b62000375565b6200036b565b9050919050565b6000819050919050565b620003bc836200037f565b620003d4620003cb82620003a7565b84845462000315565b825550505050565b600090565b620003eb620003dc565b620003f8818484620003b1565b505050565b5b81811015620004205762000414600082620003e1565b600181019050620003fe565b5050565b601f8211156200046f576200043981620002e3565b6200044484620002f8565b8101602085101562000454578190505b6200046c6200046385620002f8565b830182620003fd565b50505b505050565b600082821c905092915050565b6000620004946000198460080262000474565b1980831691505092915050565b6000620004af838362000481565b9150826002028217905092915050565b620004ca8262000274565b67ffffffffffffffff811115620004e657620004e5620000bf565b5b620004f28254620002ae565b620004ff82828562000424565b600060209050601f83116001811462000537576000841562000522578287015190505b6200052e8582620004a1565b8655506200059e565b601f1984166200054786620002e3565b60005b8281101562000571578489015182556001820191506020850194506020810190506200054a565b868310156200059157848901516200058d601f89168262000481565b8355505b6001600288020188555050505b505050505050565b61067780620005b66000396000f3fe608060405234801561001057600080fd5b506004361061004c5760003560e01c8063214d41a4146100515780633fbf04cf1461006d57806375d3fea6146100895780638da5cb5b146100a7575b600080fd5b61006b6004803603810190610066919061037b565b6100c5565b005b610087600480360381019061008291906103db565b6101a8565b005b6100916101fc565b60405161009e91906104b8565b60405180910390f35b6100af61028a565b6040516100bc91906104e9565b60405180910390f35b60008054906101000a900473ffffffffffffffffffffffffffffffffffffffff1673ffffffffffffffffffffffffffffffffffffffff163373ffffffffffffffffffffffffffffffffffffffff1614610153576040517f08c379a000000000000000000000000000000000000000000000000000000000815260040161014a90610561565b60405180910390fd5b8273ffffffffffffffffffffffffffffffffffffffff167fd2ad7b90ba6422cbc798d9aba9e1b7d84fefb7204228c7e2224677a4da1dee9e838360405161019b9291906105bd565b60405180910390a2505050565b3373ffffffffffffffffffffffffffffffffffffffff167f48f27c6bbf8e75ca42ff900b1066f61c50fae6487a7c541c3098bfdf3b26944b83836040516101f09291906105bd565b60405180910390a25050565b6001805461020990610610565b80601f016020809104026020016040519081016040528092919081815260200182805461023590610610565b80156102825780601f1061025757610100808354040283529160200191610282565b820191906000526020600020905b81548152906001019060200180831161026557829003601f168201915b505050505081565b60008054906101000a900473ffffffffffffffffffffffffffffffffffffffff1681565b600080fd5b600080fd5b600073ffffffffffffffffffffffffffffffffffffffff82169050919050565b60006102e3826102b8565b9050919050565b6102f3816102d8565b81146102fe57600080fd5b50565b600081359050610310816102ea565b92915050565b600080fd5b600080fd5b600080fd5b60008083601f84011261033b5761033a610316565b5b8235905067ffffffffffffffff8111156103585761035761031b565b5b60208301915083600182028301111561037457610373610320565b5b9250929050565b600080600060408486031215610394576103936102ae565b5b60006103a286828701610301565b935050602084013567ffffffffffffffff8111156103c3576103c26102b3565b5b6103cf86828701610325565b92509250509250925092565b600080602083850312156103f2576103f16102ae565b5b600083013567ffffffffffffffff8111156104105761040f6102b3565b5b61041c85828601610325565b92509250509250929050565b600081519050919050565b600082825260208201905092915050565b60005b83811015610462578082015181840152602081019050610447565b60008484015250505050565b6000601f19601f8301169050919050565b600061048a82610428565b6104948185610433565b93506104a4818560208601610444565b6104ad8161046e565b840191505092915050565b600060208201905081810360008301526104d2818461047f565b905092915050565b6104e3816102d8565b82525050565b60006020820190506104fe60008301846104da565b92915050565b600082825260208201905092915050565b7f6f6e6c79206f776e657200000000000000000000000000000000000000000000600082015250565b600061054b600a83610504565b915061055682610515565b602082019050919050565b6000602082019050818103600083015261057a8161053e565b9050919050565b82818337600083830152505050565b600061059c8385610433565b93506105a9838584610581565b6105b28361046e565b840190509392505050565b600060208201905081810360008301526105d8818486610590565b90509392505050565b7f4e487b7100000000000000000000000000000000000000000000000000000000600052602260045260246000fd5b6000600282049050600182168061062857607f821691505b60208210810361063b5761063a6105e1565b5b5091905056fea2646970667358221220dc558eb9ceb365098c6338acfc34ae7671d624ba3c5a3c0a1fe182de59dca69f64736f6c63430008130033",
  "linkReferences": {},
  "deployedLinkReferences": {}
}